{
  "transactions": [
    {
      "hash": null,
      "transactionType": "CALL",
      "contractName": null,
      "contractAddress": "0x779877a7b0d9e8603169ddbd7836e478b4624789",
      "function": "transferAndCall(address,uint256,bytes)",
      "arguments": [
        "0x9DdfaCa8183c41ad55329BdeeD9F6A8d53168B1B",
        "10000000000000000",
        "0x518360ac4f50b7d567cc4281e6e475cb6cf3579ef2eff73a0b38732e7e149d94"
      ],
      "transaction": {
        "from": "0xf39fd6e51aad88f6f4ce6ab8827279cfffb92266",
        "to": "0x779877a7b0d9e8603169ddbd7836e478b4624789",
        "gas": "0x1a8ee",
        "value": "0x0",
        "input": "0x4000aea00000000000000000000000009ddfaca8183c41ad55329bdeed9f6a8d53168b1b000000000000000000000000000000000000000000000000002386f26fc1000000000000000000000000000000000000000000000000000000000000000000600000000000000000000000000000000000000000000000000000000000000020518360ac4f50b7d567cc4281e6e475cb6cf3579ef2eff73a0b38732e7e149d94",
        "nonce": "0x238a",
        "chainId": "0xaa36a7"
      },
      "additionalContracts": [],
      "isFixedGasLimit": false
    }
  ],
  "receipts": [],
  "libraries": [],
  "pending": [],
  "returns": {},
  "timestamp": 1719989545,
  "chain": 11155111,
  "commit": "a8e4689"
}