{
  "transactions": [
    {
      "hash": "0x7d835f21e59a6eab0bda772364a621c2c2371ca5f5f8b91f2608b0f3dff5fb16",
      "transactionType": "CALL",
      "contractName": null,
      "contractAddress": "0x779877a7b0d9e8603169ddbd7836e478b4624789",
      "function": "transferAndCall(address,uint256,bytes)",
      "arguments": [
        "0x9DdfaCa8183c41ad55329BdeeD9F6A8d53168B1B",
        "3000000000000000000",
        "0x518360ac4f50b7d567cc4281e6e475cb6cf3579ef2eff73a0b38732e7e149d94"
      ],
      "transaction": {
        "from": "0xa324cbeb48d0dede644ed671d45e78873ae8127e",
        "to": "0x779877a7b0d9e8603169ddbd7836e478b4624789",
        "gas": "0x1c1ff",
        "value": "0x0",
        "input": "0x4000aea00000000000000000000000009ddfaca8183c41ad55329bdeed9f6a8d53168b1b00000000000000000000000000000000000000000000000029a2241af62c000000000000000000000000000000000000000000000000000000000000000000600000000000000000000000000000000000000000000000000000000000000020518360ac4f50b7d567cc4281e6e475cb6cf3579ef2eff73a0b38732e7e149d94",
        "nonce": "0x89",
        "chainId": "0xaa36a7"
      },
      "additionalContracts": [],
      "isFixedGasLimit": false
    }
  ],
  "receipts": [
    {
      "status": "0x1",
      "cumulativeGasUsed": "0xa90327",
      "logs": [
        {
          "address": "0x779877a7b0d9e8603169ddbd7836e478b4624789",
          "topics": [
            "0xddf252ad1be2c89b69c2b068fc378daa952ba7f163c4a11628f55a4df523b3ef",
            "0x000000000000000000000000a324cbeb48d0dede644ed671d45e78873ae8127e",
            "0x0000000000000000000000009ddfaca8183c41ad55329bdeed9f6a8d53168b1b"
          ],
          "data": "0x00000000000000000000000000000000000000000000000029a2241af62c0000",
          "blockHash": "0x1d3eb0b1d9b40f9fb8c9d5e441e4dfea53ee6dc21c7aca8859b707295a114e8b",
          "blockNumber": "0x5f3388",
          "transactionHash": "0x7d835f21e59a6eab0bda772364a621c2c2371ca5f5f8b91f2608b0f3dff5fb16",
          "transactionIndex": "0x5e",
          "logIndex": "0x97",
          "removed": false
        },
        {
          "address": "0x779877a7b0d9e8603169ddbd7836e478b4624789",
          "topics": [
            "0xe19260aff97b920c7df27010903aeb9c8d2be5d310a2c67824cf3f15396e4c16",
            "0x000000000000000000000000a324cbeb48d0dede644ed671d45e78873ae8127e",
            "0x0000000000000000000000009ddfaca8183c41ad55329bdeed9f6a8d53168b1b"
          ],
          "data": "0x00000000000000000000000000000000000000000000000029a2241af62c000000000000000000000000000000000000000000000000000000000000000000400000000000000000000000000000000000000000000000000000000000000020518360ac4f50b7d567cc4281e6e475cb6cf3579ef2eff73a0b38732e7e149d94",
          "blockHash": "0x1d3eb0b1d9b40f9fb8c9d5e441e4dfea53ee6dc21c7aca8859b707295a114e8b",
          "blockNumber": "0x5f3388",
          "transactionHash": "0x7d835f21e59a6eab0bda772364a621c2c2371ca5f5f8b91f2608b0f3dff5fb16",
          "transactionIndex": "0x5e",
          "logIndex": "0x98",
          "removed": false
        },
        {
          "address": "0x9ddfaca8183c41ad55329bdeed9f6a8d53168b1b",
          "topics": [
            "0x1ced9348ff549fceab2ac57cd3a9de38edaaab274b725ee82c23e8fc8c4eec7a",
            "0x518360ac4f50b7d567cc4281e6e475cb6cf3579ef2eff73a0b38732e7e149d94"
          ],
          "data": "0x000000000000000000000000000000000000000000000000000000000000000000000000000000000000000000000000000000000000000029a2241af62c0000",
          "blockHash": "0x1d3eb0b1d9b40f9fb8c9d5e441e4dfea53ee6dc21c7aca8859b707295a114e8b",
          "blockNumber": "0x5f3388",
          "transactionHash": "0x7d835f21e59a6eab0bda772364a621c2c2371ca5f5f8b91f2608b0f3dff5fb16",
          "transactionIndex": "0x5e",
          "logIndex": "0x99",
          "removed": false
        }
      ],
      "logsBloom": "0x00004004000000000000000000000000000000000020000000000000020000000000000000000000000000000000000000000000000000000000000000000000000000000000000000000008000000000000000000000000000020000020000008000000000000000000100000000000000000000000000000000110000040000000000000000000000000010000800000000020000000000000000000000000000000000000000000000000010000000000000000000000000004000000000000000002000000000000000001000002000000000000000100000000000000000010000000000000800000000000000000000000010000000000000000000000",
      "type": "0x2",
      "transactionHash": "0x7d835f21e59a6eab0bda772364a621c2c2371ca5f5f8b91f2608b0f3dff5fb16",
      "transactionIndex": "0x5e",
      "blockHash": "0x1d3eb0b1d9b40f9fb8c9d5e441e4dfea53ee6dc21c7aca8859b707295a114e8b",
      "blockNumber": "0x5f3388",
      "gasUsed": "0x133b1",
      "effectiveGasPrice": "0x208b9dd3c",
      "from": "0xa324cbeb48d0dede644ed671d45e78873ae8127e",
      "to": "0x779877a7b0d9e8603169ddbd7836e478b4624789",
      "contractAddress": null
    }
  ],
  "libraries": [],
  "pending": [],
  "returns": {},
  "timestamp": 1720025113,
  "chain": 11155111,
  "commit": "c847d80"
}